{
  "contractName": "register",
  "abi": [
    {
      "inputs": [
        {
          "internalType": "bytes32",
          "name": "phoneno",
          "type": "bytes32"
        },
        {
          "internalType": "bytes32",
          "name": "name",
          "type": "bytes32"
        },
        {
          "internalType": "bytes32",
          "name": "place",
          "type": "bytes32"
        },
        {
          "internalType": "address",
          "name": "wallet",
          "type": "address"
        }
      ],
      "name": "addUser",
      "outputs": [],
      "stateMutability": "nonpayable",
      "type": "function"
    },
    {
      "inputs": [],
      "name": "viewUsers",
      "outputs": [
        {
          "internalType": "bytes32[]",
          "name": "",
          "type": "bytes32[]"
        },
        {
          "internalType": "bytes32[]",
          "name": "",
          "type": "bytes32[]"
        },
        {
          "internalType": "bytes32[]",
          "name": "",
          "type": "bytes32[]"
        },
        {
          "internalType": "address[]",
          "name": "",
          "type": "address[]"
        }
      ],
      "stateMutability": "view",
      "type": "function",
      "constant": true
    }
  ],
  "bytecode": "0x608060405234801561001057600080fd5b50610609806100206000396000f3fe608060405234801561001057600080fd5b50600436106100365760003560e01c806314ebdb791461003b578063964299e81461005c575b600080fd5b610043610078565b60405161005394939291906104ae565b60405180910390f35b6100766004803603810190610071919061056c565b610212565b005b6060806060806000600160026003838054806020026020016040519081016040528092919081815260200182805480156100d157602002820191906000526020600020905b8154815260200190600101908083116100bd575b505050505093508280548060200260200160405190810160405280929190818152602001828054801561012357602002820191906000526020600020905b81548152602001906001019080831161010f575b505050505092508180548060200260200160405190810160405280929190818152602001828054801561017557602002820191906000526020600020905b815481526020019060010190808311610161575b50505050509150808054806020026020016040519081016040528092919081815260200182805480156101fd57602002820191906000526020600020905b8160009054906101000a900473ffffffffffffffffffffffffffffffffffffffff1673ffffffffffffffffffffffffffffffffffffffff16815260200190600101908083116101b3575b50505050509050935093509350935090919293565b6000849080600181540180825580915050600190039060005260206000200160009091909190915055600183908060018154018082558091505060019003906000526020600020016000909190919091505560028290806001815401808255809150506001900390600052602060002001600090919091909150556003819080600181540180825580915050600190039060005260206000200160009091909190916101000a81548173ffffffffffffffffffffffffffffffffffffffff021916908373ffffffffffffffffffffffffffffffffffffffff16021790555050505050565b600081519050919050565b600082825260208201905092915050565b6000819050602082019050919050565b6000819050919050565b61033581610322565b82525050565b6000610347838361032c565b60208301905092915050565b6000602082019050919050565b600061036b826102f6565b6103758185610301565b935061038083610312565b8060005b838110156103b1578151610398888261033b565b97506103a383610353565b925050600181019050610384565b5085935050505092915050565b600081519050919050565b600082825260208201905092915050565b6000819050602082019050919050565b600073ffffffffffffffffffffffffffffffffffffffff82169050919050565b6000610415826103ea565b9050919050565b6104258161040a565b82525050565b6000610437838361041c565b60208301905092915050565b6000602082019050919050565b600061045b826103be565b61046581856103c9565b9350610470836103da565b8060005b838110156104a1578151610488888261042b565b975061049383610443565b925050600181019050610474565b5085935050505092915050565b600060808201905081810360008301526104c88187610360565b905081810360208301526104dc8186610360565b905081810360408301526104f08185610360565b905081810360608301526105048184610450565b905095945050505050565b600080fd5b61051d81610322565b811461052857600080fd5b50565b60008135905061053a81610514565b92915050565b6105498161040a565b811461055457600080fd5b50565b60008135905061056681610540565b92915050565b600080600080608085870312156105865761058561050f565b5b60006105948782880161052b565b94505060206105a58782880161052b565b93505060406105b68782880161052b565b92505060606105c787828801610557565b9150509295919450925056fea2646970667358221220d2bdf49ae7e62e7650dbb0beeab178fe6b97a111d143993675795dd42561de0364736f6c634300080f0033",
  "immutableReferences": {},
  "source": "// SPDX-License-Identifier: MIT\npragma solidity >=0.4.22 <0.9.0;\n\ncontract register {\n  \n  bytes32[] _phonenos;\n  bytes32[] _names;\n  bytes32[] _places;\n  address[] _wallets;\n\n\n  function addUser(bytes32 phoneno,bytes32 name, bytes32 place, address wallet) public {\n    _phonenos.push(phoneno);\n    _names.push(name);\n    _places.push(place);\n    _wallets.push(wallet);\n  }\n\n  function viewUsers() public view returns(bytes32[] memory,bytes32[] memory,bytes32[] memory,address[] memory) {\n    return (_phonenos,_names,_places,_wallets);\n  }\n}\n",
  "sourcePath": "/Users/ms/charity-funding-blockchain/contracts/register.sol",
  "compiler": {
    "name": "solc",
    "version": "0.8.15+commit.e14f2714.Emscripten.clang"
  },
  "schemaVersion": "3.4.8",
  "updatedAt": "2022-10-22T01:50:51.988Z",
  "networkType": "ethereum",
  "devdoc": {
    "kind": "dev",
    "methods": {},
    "version": 1
  },
  "userdoc": {
    "kind": "user",
    "methods": {},
    "version": 1
  }
}